{
  "_format": "hh-sol-artifact-1",
  "contractName": "CourseCertificate",
  "sourceName": "contracts/CourseCertificate.sol",
  "abi": [
    {
      "inputs": [],
      "stateMutability": "nonpayable",
      "type": "constructor"
    },
    {
      "inputs": [],
      "name": "AccessControlBadConfirmation",
      "type": "error"
    },
    {
      "inputs": [
        {
          "internalType": "address",
          "name": "account",
          "type": "address"
        },
        {
          "internalType": "bytes32",
          "name": "neededRole",
          "type": "bytes32"
        }
      ],
      "name": "AccessControlUnauthorizedAccount",
      "type": "error"
    },
    {
      "inputs": [
        {
          "internalType": "address",
          "name": "sender",
          "type": "address"
        },
        {
          "internalType": "uint256",
          "name": "tokenId",
          "type": "uint256"
        },
        {
          "internalType": "address",
          "name": "owner",
          "type": "address"
        }
      ],
      "name": "ERC721IncorrectOwner",
      "type": "error"
    },
    {
      "inputs": [
        {
          "internalType": "address",
          "name": "operator",
          "type": "address"
        },
        {
          "internalType": "uint256",
          "name": "tokenId",
          "type": "uint256"
        }
      ],
      "name": "ERC721InsufficientApproval",
      "type": "error"
    },
    {
      "inputs": [
        {
          "internalType": "address",
          "name": "approver",
          "type": "address"
        }
      ],
      "name": "ERC721InvalidApprover",
      "type": "error"
    },
    {
      "inputs": [
        {
          "internalType": "address",
          "name": "operator",
          "type": "address"
        }
      ],
      "name": "ERC721InvalidOperator",
      "type": "error"
    },
    {
      "inputs": [
        {
          "internalType": "address",
          "name": "owner",
          "type": "address"
        }
      ],
      "name": "ERC721InvalidOwner",
      "type": "error"
    },
    {
      "inputs": [
        {
          "internalType": "address",
          "name": "receiver",
          "type": "address"
        }
      ],
      "name": "ERC721InvalidReceiver",
      "type": "error"
    },
    {
      "inputs": [
        {
          "internalType": "address",
          "name": "sender",
          "type": "address"
        }
      ],
      "name": "ERC721InvalidSender",
      "type": "error"
    },
    {
      "inputs": [
        {
          "internalType": "uint256",
          "name": "tokenId",
          "type": "uint256"
        }
      ],
      "name": "ERC721NonexistentToken",
      "type": "error"
    },
    {
      "anonymous": false,
      "inputs": [
        {
          "indexed": true,
          "internalType": "address",
          "name": "owner",
          "type": "address"
        },
        {
          "indexed": true,
          "internalType": "address",
          "name": "approved",
          "type": "address"
        },
        {
          "indexed": true,
          "internalType": "uint256",
          "name": "tokenId",
          "type": "uint256"
        }
      ],
      "name": "Approval",
      "type": "event"
    },
    {
      "anonymous": false,
      "inputs": [
        {
          "indexed": true,
          "internalType": "address",
          "name": "owner",
          "type": "address"
        },
        {
          "indexed": true,
          "internalType": "address",
          "name": "operator",
          "type": "address"
        },
        {
          "indexed": false,
          "internalType": "bool",
          "name": "approved",
          "type": "bool"
        }
      ],
      "name": "ApprovalForAll",
      "type": "event"
    },
    {
      "anonymous": false,
      "inputs": [
        {
          "indexed": true,
          "internalType": "uint256",
          "name": "tokenId",
          "type": "uint256"
        },
        {
          "indexed": false,
          "internalType": "string",
          "name": "web2CourseId",
          "type": "string"
        },
        {
          "indexed": true,
          "internalType": "address",
          "name": "student",
          "type": "address"
        }
      ],
      "name": "CertificateMinted",
      "type": "event"
    },
    {
      "anonymous": false,
      "inputs": [
        {
          "indexed": true,
          "internalType": "bytes32",
          "name": "role",
          "type": "bytes32"
        },
        {
          "indexed": true,
          "internalType": "bytes32",
          "name": "previousAdminRole",
          "type": "bytes32"
        },
        {
          "indexed": true,
          "internalType": "bytes32",
          "name": "newAdminRole",
          "type": "bytes32"
        }
      ],
      "name": "RoleAdminChanged",
      "type": "event"
    },
    {
      "anonymous": false,
      "inputs": [
        {
          "indexed": true,
          "internalType": "bytes32",
          "name": "role",
          "type": "bytes32"
        },
        {
          "indexed": true,
          "internalType": "address",
          "name": "account",
          "type": "address"
        },
        {
          "indexed": true,
          "internalType": "address",
          "name": "sender",
          "type": "address"
        }
      ],
      "name": "RoleGranted",
      "type": "event"
    },
    {
      "anonymous": false,
      "inputs": [
        {
          "indexed": true,
          "internalType": "bytes32",
          "name": "role",
          "type": "bytes32"
        },
        {
          "indexed": true,
          "internalType": "address",
          "name": "account",
          "type": "address"
        },
        {
          "indexed": true,
          "internalType": "address",
          "name": "sender",
          "type": "address"
        }
      ],
      "name": "RoleRevoked",
      "type": "event"
    },
    {
      "anonymous": false,
      "inputs": [
        {
          "indexed": true,
          "internalType": "address",
          "name": "from",
          "type": "address"
        },
        {
          "indexed": true,
          "internalType": "address",
          "name": "to",
          "type": "address"
        },
        {
          "indexed": true,
          "internalType": "uint256",
          "name": "tokenId",
          "type": "uint256"
        }
      ],
      "name": "Transfer",
      "type": "event"
    },
    {
      "inputs": [],
      "name": "DEFAULT_ADMIN_ROLE",
      "outputs": [
        {
          "internalType": "bytes32",
          "name": "",
          "type": "bytes32"
        }
      ],
      "stateMutability": "view",
      "type": "function"
    },
    {
      "inputs": [],
      "name": "MINTER_ROLE",
      "outputs": [
        {
          "internalType": "bytes32",
          "name": "",
          "type": "bytes32"
        }
      ],
      "stateMutability": "view",
      "type": "function"
    },
    {
      "inputs": [
        {
          "internalType": "address",
          "name": "to",
          "type": "address"
        },
        {
          "internalType": "uint256",
          "name": "tokenId",
          "type": "uint256"
        }
      ],
      "name": "approve",
      "outputs": [],
      "stateMutability": "nonpayable",
      "type": "function"
    },
    {
      "inputs": [
        {
          "internalType": "address",
          "name": "owner",
          "type": "address"
        }
      ],
      "name": "balanceOf",
      "outputs": [
        {
          "internalType": "uint256",
          "name": "",
          "type": "uint256"
        }
      ],
      "stateMutability": "view",
      "type": "function"
    },
    {
      "inputs": [
        {
          "internalType": "uint256",
          "name": "",
          "type": "uint256"
        }
      ],
      "name": "certificates",
      "outputs": [
        {
          "internalType": "string",
          "name": "web2CourseId",
          "type": "string"
        },
        {
          "internalType": "address",
          "name": "student",
          "type": "address"
        },
        {
          "internalType": "uint256",
          "name": "timestamp",
          "type": "uint256"
        },
        {
          "internalType": "string",
          "name": "metadataURI",
          "type": "string"
        }
      ],
      "stateMutability": "view",
      "type": "function"
    },
    {
      "inputs": [
        {
          "internalType": "uint256",
          "name": "tokenId",
          "type": "uint256"
        }
      ],
      "name": "getApproved",
      "outputs": [
        {
          "internalType": "address",
          "name": "",
          "type": "address"
        }
      ],
      "stateMutability": "view",
      "type": "function"
    },
    {
      "inputs": [
        {
          "internalType": "bytes32",
          "name": "role",
          "type": "bytes32"
        }
      ],
      "name": "getRoleAdmin",
      "outputs": [
        {
          "internalType": "bytes32",
          "name": "",
          "type": "bytes32"
        }
      ],
      "stateMutability": "view",
      "type": "function"
    },
    {
      "inputs": [
        {
          "internalType": "address",
          "name": "student",
          "type": "address"
        },
        {
          "internalType": "string",
          "name": "web2CourseId",
          "type": "string"
        }
      ],
      "name": "getStudentCertificates",
      "outputs": [
        {
          "internalType": "uint256[]",
          "name": "",
          "type": "uint256[]"
        }
      ],
      "stateMutability": "view",
      "type": "function"
    },
    {
      "inputs": [
        {
          "internalType": "bytes32",
          "name": "role",
          "type": "bytes32"
        },
        {
          "internalType": "address",
          "name": "account",
          "type": "address"
        }
      ],
      "name": "grantRole",
      "outputs": [],
      "stateMutability": "nonpayable",
      "type": "function"
    },
    {
      "inputs": [
        {
          "internalType": "address",
          "name": "student",
          "type": "address"
        },
        {
          "internalType": "string",
          "name": "web2CourseId",
          "type": "string"
        }
      ],
      "name": "hasCertificate",
      "outputs": [
        {
          "internalType": "bool",
          "name": "",
          "type": "bool"
        }
      ],
      "stateMutability": "view",
      "type": "function"
    },
    {
      "inputs": [
        {
          "internalType": "bytes32",
          "name": "role",
          "type": "bytes32"
        },
        {
          "internalType": "address",
          "name": "account",
          "type": "address"
        }
      ],
      "name": "hasRole",
      "outputs": [
        {
          "internalType": "bool",
          "name": "",
          "type": "bool"
        }
      ],
      "stateMutability": "view",
      "type": "function"
    },
    {
      "inputs": [
        {
          "internalType": "address",
          "name": "owner",
          "type": "address"
        },
        {
          "internalType": "address",
          "name": "operator",
          "type": "address"
        }
      ],
      "name": "isApprovedForAll",
      "outputs": [
        {
          "internalType": "bool",
          "name": "",
          "type": "bool"
        }
      ],
      "stateMutability": "view",
      "type": "function"
    },
    {
      "inputs": [
        {
          "internalType": "address",
          "name": "student",
          "type": "address"
        },
        {
          "internalType": "string",
          "name": "web2CourseId",
          "type": "string"
        },
        {
          "internalType": "string",
          "name": "metadataURI",
          "type": "string"
        }
      ],
      "name": "mintCertificate",
      "outputs": [
        {
          "internalType": "uint256",
          "name": "",
          "type": "uint256"
        }
      ],
      "stateMutability": "nonpayable",
      "type": "function"
    },
    {
      "inputs": [],
      "name": "name",
      "outputs": [
        {
          "internalType": "string",
          "name": "",
          "type": "string"
        }
      ],
      "stateMutability": "view",
      "type": "function"
    },
    {
      "inputs": [
        {
          "internalType": "uint256",
          "name": "tokenId",
          "type": "uint256"
        }
      ],
      "name": "ownerOf",
      "outputs": [
        {
          "internalType": "address",
          "name": "",
          "type": "address"
        }
      ],
      "stateMutability": "view",
      "type": "function"
    },
    {
      "inputs": [
        {
          "internalType": "bytes32",
          "name": "role",
          "type": "bytes32"
        },
        {
          "internalType": "address",
          "name": "callerConfirmation",
          "type": "address"
        }
      ],
      "name": "renounceRole",
      "outputs": [],
      "stateMutability": "nonpayable",
      "type": "function"
    },
    {
      "inputs": [
        {
          "internalType": "bytes32",
          "name": "role",
          "type": "bytes32"
        },
        {
          "internalType": "address",
          "name": "account",
          "type": "address"
        }
      ],
      "name": "revokeRole",
      "outputs": [],
      "stateMutability": "nonpayable",
      "type": "function"
    },
    {
      "inputs": [
        {
          "internalType": "address",
          "name": "from",
          "type": "address"
        },
        {
          "internalType": "address",
          "name": "to",
          "type": "address"
        },
        {
          "internalType": "uint256",
          "name": "tokenId",
          "type": "uint256"
        }
      ],
      "name": "safeTransferFrom",
      "outputs": [],
      "stateMutability": "nonpayable",
      "type": "function"
    },
    {
      "inputs": [
        {
          "internalType": "address",
          "name": "from",
          "type": "address"
        },
        {
          "internalType": "address",
          "name": "to",
          "type": "address"
        },
        {
          "internalType": "uint256",
          "name": "tokenId",
          "type": "uint256"
        },
        {
          "internalType": "bytes",
          "name": "data",
          "type": "bytes"
        }
      ],
      "name": "safeTransferFrom",
      "outputs": [],
      "stateMutability": "nonpayable",
      "type": "function"
    },
    {
      "inputs": [
        {
          "internalType": "address",
          "name": "operator",
          "type": "address"
        },
        {
          "internalType": "bool",
          "name": "approved",
          "type": "bool"
        }
      ],
      "name": "setApprovalForAll",
      "outputs": [],
      "stateMutability": "nonpayable",
      "type": "function"
    },
    {
      "inputs": [
        {
          "internalType": "string",
          "name": "",
          "type": "string"
        },
        {
          "internalType": "address",
          "name": "",
          "type": "address"
        },
        {
          "internalType": "uint256",
          "name": "",
          "type": "uint256"
        }
      ],
      "name": "studentCertificates",
      "outputs": [
        {
          "internalType": "uint256",
          "name": "",
          "type": "uint256"
        }
      ],
      "stateMutability": "view",
      "type": "function"
    },
    {
      "inputs": [
        {
          "internalType": "bytes4",
          "name": "interfaceId",
          "type": "bytes4"
        }
      ],
      "name": "supportsInterface",
      "outputs": [
        {
          "internalType": "bool",
          "name": "",
          "type": "bool"
        }
      ],
      "stateMutability": "view",
      "type": "function"
    },
    {
      "inputs": [],
      "name": "symbol",
      "outputs": [
        {
          "internalType": "string",
          "name": "",
          "type": "string"
        }
      ],
      "stateMutability": "view",
      "type": "function"
    },
    {
      "inputs": [
        {
          "internalType": "uint256",
          "name": "tokenId",
          "type": "uint256"
        }
      ],
      "name": "tokenURI",
      "outputs": [
        {
          "internalType": "string",
          "name": "",
          "type": "string"
        }
      ],
      "stateMutability": "view",
      "type": "function"
    },
    {
      "inputs": [
        {
          "internalType": "address",
          "name": "from",
          "type": "address"
        },
        {
          "internalType": "address",
          "name": "to",
          "type": "address"
        },
        {
          "internalType": "uint256",
          "name": "tokenId",
          "type": "uint256"
        }
      ],
      "name": "transferFrom",
      "outputs": [],
      "stateMutability": "nonpayable",
      "type": "function"
    }
  ],
  "bytecode": "0x608060405234801561001057600080fd5b506040518060400160405280601981526020017f596944656e6720436f75727365204365727469666963617465000000000000008152506040518060400160405280600481526020017f5944434300000000000000000000000000000000000000000000000000000000815250816000908161008c91906104b2565b50806001908161009c91906104b2565b5050506100b26000801b336100f160201b60201c565b506100e37f9f2df0fed2c77648de5860a4cc508cd0818c85b8b8a1ab4ceeef8d981c8956a6336100f160201b60201c565b506001600781905550610584565b600061010383836101ef60201b60201c565b6101e45760016006600085815260200190815260200160002060000160008473ffffffffffffffffffffffffffffffffffffffff1673ffffffffffffffffffffffffffffffffffffffff16815260200190815260200160002060006101000a81548160ff02191690831515021790555061018161025a60201b60201c565b73ffffffffffffffffffffffffffffffffffffffff168273ffffffffffffffffffffffffffffffffffffffff16847f2f8788117e7eff1d82e926ec794901d17c78024a50270940304540a733656f0d60405160405180910390a4600190506101e9565b600090505b92915050565b60006006600084815260200190815260200160002060000160008373ffffffffffffffffffffffffffffffffffffffff1673ffffffffffffffffffffffffffffffffffffffff16815260200190815260200160002060009054906101000a900460ff16905092915050565b600033905090565b600081519050919050565b7f4e487b7100000000000000000000000000000000000000000000000000000000600052604160045260246000fd5b7f4e487b7100000000000000000000000000000000000000000000000000000000600052602260045260246000fd5b600060028204905060018216806102e357607f821691505b6020821081036102f6576102f561029c565b5b50919050565b60008190508160005260206000209050919050565b60006020601f8301049050919050565b600082821b905092915050565b60006008830261035e7fffffffffffffffffffffffffffffffffffffffffffffffffffffffffffffffff82610321565b6103688683610321565b95508019841693508086168417925050509392505050565b6000819050919050565b6000819050919050565b60006103af6103aa6103a584610380565b61038a565b610380565b9050919050565b6000819050919050565b6103c983610394565b6103dd6103d5826103b6565b84845461032e565b825550505050565b600090565b6103f26103e5565b6103fd8184846103c0565b505050565b5b81811015610421576104166000826103ea565b600181019050610403565b5050565b601f82111561046657610437816102fc565b61044084610311565b8101602085101561044f578190505b61046361045b85610311565b830182610402565b50505b505050565b600082821c905092915050565b60006104896000198460080261046b565b1980831691505092915050565b60006104a28383610478565b9150826002028217905092915050565b6104bb82610262565b67ffffffffffffffff8111156104d4576104d361026d565b5b6104de82546102cb565b6104e9828285610425565b600060209050601f83116001811461051c576000841561050a578287015190505b6105148582610496565b86555061057c565b601f19841661052a866102fc565b60005b828110156105525784890151825560018201915060208501945060208101905061052d565b8683101561056f578489015161056b601f891682610478565b8355505b6001600288020188555050505b505050505050565b612ff8806105936000396000f3fe608060405234801561001057600080fd5b50600436106101735760003560e01c8063663b3e22116100de578063a22cb46511610097578063d33f116511610071578063d33f1165146104a9578063d5391393146104d9578063d547741f146104f7578063e985e9c51461051357610173565b8063a22cb46514610441578063b88d4fde1461045d578063c87b56dd1461047957610173565b8063663b3e22146103425780636b55243d1461037557806370a08231146103a557806391d14854146103d557806395d89b4114610405578063a217fddf1461042357610173565b80632f2ff15d116101305780632f2ff15d1461025e57806336568abe1461027a5780633998b6fe146102965780633c433ebe146102c657806342842e0e146102f65780636352211e1461031257610173565b806301ffc9a71461017857806306fdde03146101a8578063081812fc146101c6578063095ea7b3146101f657806323b872dd14610212578063248a9ca31461022e575b600080fd5b610192600480360381019061018d9190612091565b610543565b60405161019f91906120d9565b60405180910390f35b6101b0610555565b6040516101bd9190612184565b60405180910390f35b6101e060048036038101906101db91906121dc565b6105e7565b6040516101ed919061224a565b60405180910390f35b610210600480360381019061020b9190612291565b610603565b005b61022c600480360381019061022791906122d1565b610619565b005b6102486004803603810190610243919061235a565b61071b565b6040516102559190612396565b60405180910390f35b610278600480360381019061027391906123b1565b61073b565b005b610294600480360381019061028f91906123b1565b61075d565b005b6102b060048036038101906102ab9190612526565b6107d8565b6040516102bd9190612640565b60405180910390f35b6102e060048036038101906102db9190612526565b61088c565b6040516102ed91906120d9565b60405180910390f35b610310600480360381019061030b91906122d1565b6108f7565b005b61032c600480360381019061032791906121dc565b610917565b604051610339919061224a565b60405180910390f35b61035c600480360381019061035791906121dc565b610929565b60405161036c9493929190612671565b60405180910390f35b61038f600480360381019061038a91906126c4565b610a89565b60405161039c919061274f565b60405180910390f35b6103bf60048036038101906103ba919061276a565b610cf4565b6040516103cc919061274f565b60405180910390f35b6103ef60048036038101906103ea91906123b1565b610dae565b6040516103fc91906120d9565b60405180910390f35b61040d610e19565b60405161041a9190612184565b60405180910390f35b61042b610eab565b6040516104389190612396565b60405180910390f35b61045b600480360381019061045691906127c3565b610eb2565b005b610477600480360381019061047291906128a4565b610ec8565b005b610493600480360381019061048e91906121dc565b610eed565b6040516104a09190612184565b60405180910390f35b6104c360048036038101906104be9190612927565b61100c565b6040516104d0919061274f565b60405180910390f35b6104e1611060565b6040516104ee9190612396565b60405180910390f35b610511600480360381019061050c91906123b1565b611084565b005b61052d60048036038101906105289190612996565b6110a6565b60405161053a91906120d9565b60405180910390f35b600061054e8261113a565b9050919050565b60606000805461056490612a05565b80601f016020809104026020016040519081016040528092919081815260200182805461059090612a05565b80156105dd5780601f106105b2576101008083540402835291602001916105dd565b820191906000526020600020905b8154815290600101906020018083116105c057829003601f168201915b5050505050905090565b60006105f2826111b4565b506105fc8261123c565b9050919050565b6106158282610610611279565b611281565b5050565b600073ffffffffffffffffffffffffffffffffffffffff168273ffffffffffffffffffffffffffffffffffffffff160361068b5760006040517f64a0ae92000000000000000000000000000000000000000000000000000000008152600401610682919061224a565b60405180910390fd5b600061069f838361069a611279565b611293565b90508373ffffffffffffffffffffffffffffffffffffffff168173ffffffffffffffffffffffffffffffffffffffff1614610715578382826040517f64283d7b00000000000000000000000000000000000000000000000000000000815260040161070c93929190612a36565b60405180910390fd5b50505050565b600060066000838152602001908152602001600020600101549050919050565b6107448261071b565b61074d816114ad565b61075783836114c1565b50505050565b610765611279565b73ffffffffffffffffffffffffffffffffffffffff168173ffffffffffffffffffffffffffffffffffffffff16146107c9576040517f6697b23200000000000000000000000000000000000000000000000000000000815260040160405180910390fd5b6107d382826115b3565b505050565b60606009826040516107ea9190612aa9565b908152602001604051809103902060008473ffffffffffffffffffffffffffffffffffffffff1673ffffffffffffffffffffffffffffffffffffffff16815260200190815260200160002080548060200260200160405190810160405280929190818152602001828054801561087f57602002820191906000526020600020905b81548152602001906001019080831161086b575b5050505050905092915050565b60008060098360405161089f9190612aa9565b908152602001604051809103902060008573ffffffffffffffffffffffffffffffffffffffff1673ffffffffffffffffffffffffffffffffffffffff1681526020019081526020016000208054905011905092915050565b61091283838360405180602001604052806000815250610ec8565b505050565b6000610922826111b4565b9050919050565b600860205280600052604060002060009150905080600001805461094c90612a05565b80601f016020809104026020016040519081016040528092919081815260200182805461097890612a05565b80156109c55780601f1061099a576101008083540402835291602001916109c5565b820191906000526020600020905b8154815290600101906020018083116109a857829003601f168201915b5050505050908060010160009054906101000a900473ffffffffffffffffffffffffffffffffffffffff1690806002015490806003018054610a0690612a05565b80601f0160208091040260200160405190810160405280929190818152602001828054610a3290612a05565b8015610a7f5780601f10610a5457610100808354040283529160200191610a7f565b820191906000526020600020905b815481529060010190602001808311610a6257829003601f168201915b5050505050905084565b60007f9f2df0fed2c77648de5860a4cc508cd0818c85b8b8a1ab4ceeef8d981c8956a6610ab5816114ad565b600073ffffffffffffffffffffffffffffffffffffffff168573ffffffffffffffffffffffffffffffffffffffff1603610b24576040517f08c379a0000000000000000000000000000000000000000000000000000000008152600401610b1b90612b0c565b60405180910390fd5b6000600754905060076000815480929190610b3e90612b5b565b9190505550610b4d86826116a6565b60405180608001604052808681526020018773ffffffffffffffffffffffffffffffffffffffff16815260200142815260200185815250600860008381526020019081526020016000206000820151816000019081610bac9190612d4f565b5060208201518160010160006101000a81548173ffffffffffffffffffffffffffffffffffffffff021916908373ffffffffffffffffffffffffffffffffffffffff160217905550604082015181600201556060820151816003019081610c139190612d4f565b50905050600985604051610c279190612aa9565b908152602001604051809103902060008773ffffffffffffffffffffffffffffffffffffffff1673ffffffffffffffffffffffffffffffffffffffff1681526020019081526020016000208190806001815401808255809150506001900390600052602060002001600090919091909150558573ffffffffffffffffffffffffffffffffffffffff16817f3a8294eea84a809a4e4f058c92870183809c74c7e705132fcbdc5e2b0e51d9f187604051610ce09190612184565b60405180910390a380925050509392505050565b60008073ffffffffffffffffffffffffffffffffffffffff168273ffffffffffffffffffffffffffffffffffffffff1603610d675760006040517f89c62b64000000000000000000000000000000000000000000000000000000008152600401610d5e919061224a565b60405180910390fd5b600360008373ffffffffffffffffffffffffffffffffffffffff1673ffffffffffffffffffffffffffffffffffffffff168152602001908152602001600020549050919050565b60006006600084815260200190815260200160002060000160008373ffffffffffffffffffffffffffffffffffffffff1673ffffffffffffffffffffffffffffffffffffffff16815260200190815260200160002060009054906101000a900460ff16905092915050565b606060018054610e2890612a05565b80601f0160208091040260200160405190810160405280929190818152602001828054610e5490612a05565b8015610ea15780601f10610e7657610100808354040283529160200191610ea1565b820191906000526020600020905b815481529060010190602001808311610e8457829003601f168201915b5050505050905090565b6000801b81565b610ec4610ebd611279565b83836116c4565b5050565b610ed3848484610619565b610ee7610ede611279565b85858585611833565b50505050565b6060600073ffffffffffffffffffffffffffffffffffffffff16610f10836119e4565b73ffffffffffffffffffffffffffffffffffffffff1603610f66576040517f08c379a0000000000000000000000000000000000000000000000000000000008152600401610f5d90612e6d565b60405180910390fd5b600860008381526020019081526020016000206003018054610f8790612a05565b80601f0160208091040260200160405190810160405280929190818152602001828054610fb390612a05565b80156110005780601f10610fd557610100808354040283529160200191611000565b820191906000526020600020905b815481529060010190602001808311610fe357829003601f168201915b50505050509050919050565b600983805160208101820180518482526020830160208501208183528095505050505050602052816000526040600020818154811061104a57600080fd5b9060005260206000200160009250925050505481565b7f9f2df0fed2c77648de5860a4cc508cd0818c85b8b8a1ab4ceeef8d981c8956a681565b61108d8261071b565b611096816114ad565b6110a083836115b3565b50505050565b6000600560008473ffffffffffffffffffffffffffffffffffffffff1673ffffffffffffffffffffffffffffffffffffffff16815260200190815260200160002060008373ffffffffffffffffffffffffffffffffffffffff1673ffffffffffffffffffffffffffffffffffffffff16815260200190815260200160002060009054906101000a900460ff16905092915050565b60007f7965db0b000000000000000000000000000000000000000000000000000000007bffffffffffffffffffffffffffffffffffffffffffffffffffffffff1916827bffffffffffffffffffffffffffffffffffffffffffffffffffffffff191614806111ad57506111ac82611a21565b5b9050919050565b6000806111c0836119e4565b9050600073ffffffffffffffffffffffffffffffffffffffff168173ffffffffffffffffffffffffffffffffffffffff160361123357826040517f7e27328900000000000000000000000000000000000000000000000000000000815260040161122a919061274f565b60405180910390fd5b80915050919050565b60006004600083815260200190815260200160002060009054906101000a900473ffffffffffffffffffffffffffffffffffffffff169050919050565b600033905090565b61128e8383836001611b03565b505050565b60008061129f846119e4565b9050600073ffffffffffffffffffffffffffffffffffffffff168373ffffffffffffffffffffffffffffffffffffffff16146112e1576112e0818486611cc8565b5b600073ffffffffffffffffffffffffffffffffffffffff168173ffffffffffffffffffffffffffffffffffffffff161461137257611323600085600080611b03565b6001600360008373ffffffffffffffffffffffffffffffffffffffff1673ffffffffffffffffffffffffffffffffffffffff168152602001908152602001600020600082825403925050819055505b600073ffffffffffffffffffffffffffffffffffffffff168573ffffffffffffffffffffffffffffffffffffffff16146113f5576001600360008773ffffffffffffffffffffffffffffffffffffffff1673ffffffffffffffffffffffffffffffffffffffff168152602001908152602001600020600082825401925050819055505b846002600086815260200190815260200160002060006101000a81548173ffffffffffffffffffffffffffffffffffffffff021916908373ffffffffffffffffffffffffffffffffffffffff160217905550838573ffffffffffffffffffffffffffffffffffffffff168273ffffffffffffffffffffffffffffffffffffffff167fddf252ad1be2c89b69c2b068fc378daa952ba7f163c4a11628f55a4df523b3ef60405160405180910390a4809150509392505050565b6114be816114b9611279565b611d8c565b50565b60006114cd8383610dae565b6115a85760016006600085815260200190815260200160002060000160008473ffffffffffffffffffffffffffffffffffffffff1673ffffffffffffffffffffffffffffffffffffffff16815260200190815260200160002060006101000a81548160ff021916908315150217905550611545611279565b73ffffffffffffffffffffffffffffffffffffffff168273ffffffffffffffffffffffffffffffffffffffff16847f2f8788117e7eff1d82e926ec794901d17c78024a50270940304540a733656f0d60405160405180910390a4600190506115ad565b600090505b92915050565b60006115bf8383610dae565b1561169b5760006006600085815260200190815260200160002060000160008473ffffffffffffffffffffffffffffffffffffffff1673ffffffffffffffffffffffffffffffffffffffff16815260200190815260200160002060006101000a81548160ff021916908315150217905550611638611279565b73ffffffffffffffffffffffffffffffffffffffff168273ffffffffffffffffffffffffffffffffffffffff16847ff6391f5c32d9c69d2a47ea670b442974b53935d1edc7fd64eb21e047a839171b60405160405180910390a4600190506116a0565b600090505b92915050565b6116c0828260405180602001604052806000815250611ddd565b5050565b600073ffffffffffffffffffffffffffffffffffffffff168273ffffffffffffffffffffffffffffffffffffffff160361173557816040517f5b08ba1800000000000000000000000000000000000000000000000000000000815260040161172c919061224a565b60405180910390fd5b80600560008573ffffffffffffffffffffffffffffffffffffffff1673ffffffffffffffffffffffffffffffffffffffff16815260200190815260200160002060008473ffffffffffffffffffffffffffffffffffffffff1673ffffffffffffffffffffffffffffffffffffffff16815260200190815260200160002060006101000a81548160ff0219169083151502179055508173ffffffffffffffffffffffffffffffffffffffff168373ffffffffffffffffffffffffffffffffffffffff167f17307eab39ab6107e8899845ad3d59bd9653f200f220920489ca2b5937696c318360405161182691906120d9565b60405180910390a3505050565b60008373ffffffffffffffffffffffffffffffffffffffff163b11156119dd578273ffffffffffffffffffffffffffffffffffffffff1663150b7a02868685856040518563ffffffff1660e01b81526004016118929493929190612ee2565b6020604051808303816000875af19250505080156118ce57506040513d601f19601f820116820180604052508101906118cb9190612f43565b60015b611952573d80600081146118fe576040519150601f19603f3d011682016040523d82523d6000602084013e611903565b606091505b50600081510361194a57836040517f64a0ae92000000000000000000000000000000000000000000000000000000008152600401611941919061224a565b60405180910390fd5b805181602001fd5b63150b7a0260e01b7bffffffffffffffffffffffffffffffffffffffffffffffffffffffff1916817bffffffffffffffffffffffffffffffffffffffffffffffffffffffff1916146119db57836040517f64a0ae920000000000000000000000000000000000000000000000000000000081526004016119d2919061224a565b60405180910390fd5b505b5050505050565b60006002600083815260200190815260200160002060009054906101000a900473ffffffffffffffffffffffffffffffffffffffff169050919050565b60007f80ac58cd000000000000000000000000000000000000000000000000000000007bffffffffffffffffffffffffffffffffffffffffffffffffffffffff1916827bffffffffffffffffffffffffffffffffffffffffffffffffffffffff19161480611aec57507f5b5e139f000000000000000000000000000000000000000000000000000000007bffffffffffffffffffffffffffffffffffffffffffffffffffffffff1916827bffffffffffffffffffffffffffffffffffffffffffffffffffffffff1916145b80611afc5750611afb82611e01565b5b9050919050565b8080611b3c5750600073ffffffffffffffffffffffffffffffffffffffff168273ffffffffffffffffffffffffffffffffffffffff1614155b15611c70576000611b4c846111b4565b9050600073ffffffffffffffffffffffffffffffffffffffff168373ffffffffffffffffffffffffffffffffffffffff1614158015611bb757508273ffffffffffffffffffffffffffffffffffffffff168173ffffffffffffffffffffffffffffffffffffffff1614155b8015611bca5750611bc881846110a6565b155b15611c0c57826040517fa9fbf51f000000000000000000000000000000000000000000000000000000008152600401611c03919061224a565b60405180910390fd5b8115611c6e57838573ffffffffffffffffffffffffffffffffffffffff168273ffffffffffffffffffffffffffffffffffffffff167f8c5be1e5ebec7d5bd14f71427d1e84f3dd0314c0f7b2291e5b200ac8c7c3b92560405160405180910390a45b505b836004600085815260200190815260200160002060006101000a81548173ffffffffffffffffffffffffffffffffffffffff021916908373ffffffffffffffffffffffffffffffffffffffff16021790555050505050565b611cd3838383611e6b565b611d8757600073ffffffffffffffffffffffffffffffffffffffff168373ffffffffffffffffffffffffffffffffffffffff1603611d4857806040517f7e273289000000000000000000000000000000000000000000000000000000008152600401611d3f919061274f565b60405180910390fd5b81816040517f177e802f000000000000000000000000000000000000000000000000000000008152600401611d7e929190612f70565b60405180910390fd5b505050565b611d968282610dae565b611dd95780826040517fe2517d3f000000000000000000000000000000000000000000000000000000008152600401611dd0929190612f99565b60405180910390fd5b5050565b611de78383611f2c565b611dfc611df2611279565b6000858585611833565b505050565b60007f01ffc9a7000000000000000000000000000000000000000000000000000000007bffffffffffffffffffffffffffffffffffffffffffffffffffffffff1916827bffffffffffffffffffffffffffffffffffffffffffffffffffffffff1916149050919050565b60008073ffffffffffffffffffffffffffffffffffffffff168373ffffffffffffffffffffffffffffffffffffffff1614158015611f2357508273ffffffffffffffffffffffffffffffffffffffff168473ffffffffffffffffffffffffffffffffffffffff161480611ee45750611ee384846110a6565b5b80611f2257508273ffffffffffffffffffffffffffffffffffffffff16611f0a8361123c565b73ffffffffffffffffffffffffffffffffffffffff16145b5b90509392505050565b600073ffffffffffffffffffffffffffffffffffffffff168273ffffffffffffffffffffffffffffffffffffffff1603611f9e5760006040517f64a0ae92000000000000000000000000000000000000000000000000000000008152600401611f95919061224a565b60405180910390fd5b6000611fac83836000611293565b9050600073ffffffffffffffffffffffffffffffffffffffff168173ffffffffffffffffffffffffffffffffffffffff16146120205760006040517f73c6ac6e000000000000000000000000000000000000000000000000000000008152600401612017919061224a565b60405180910390fd5b505050565b6000604051905090565b600080fd5b600080fd5b60007fffffffff0000000000000000000000000000000000000000000000000000000082169050919050565b61206e81612039565b811461207957600080fd5b50565b60008135905061208b81612065565b92915050565b6000602082840312156120a7576120a661202f565b5b60006120b58482850161207c565b91505092915050565b60008115159050919050565b6120d3816120be565b82525050565b60006020820190506120ee60008301846120ca565b92915050565b600081519050919050565b600082825260208201905092915050565b60005b8381101561212e578082015181840152602081019050612113565b60008484015250505050565b6000601f19601f8301169050919050565b6000612156826120f4565b61216081856120ff565b9350612170818560208601612110565b6121798161213a565b840191505092915050565b6000602082019050818103600083015261219e818461214b565b905092915050565b6000819050919050565b6121b9816121a6565b81146121c457600080fd5b50565b6000813590506121d6816121b0565b92915050565b6000602082840312156121f2576121f161202f565b5b6000612200848285016121c7565b91505092915050565b600073ffffffffffffffffffffffffffffffffffffffff82169050919050565b600061223482612209565b9050919050565b61224481612229565b82525050565b600060208201905061225f600083018461223b565b92915050565b61226e81612229565b811461227957600080fd5b50565b60008135905061228b81612265565b92915050565b600080604083850312156122a8576122a761202f565b5b60006122b68582860161227c565b92505060206122c7858286016121c7565b9150509250929050565b6000806000606084860312156122ea576122e961202f565b5b60006122f88682870161227c565b93505060206123098682870161227c565b925050604061231a868287016121c7565b9150509250925092565b6000819050919050565b61233781612324565b811461234257600080fd5b50565b6000813590506123548161232e565b92915050565b6000602082840312156123705761236f61202f565b5b600061237e84828501612345565b91505092915050565b61239081612324565b82525050565b60006020820190506123ab6000830184612387565b92915050565b600080604083850312156123c8576123c761202f565b5b60006123d685828601612345565b92505060206123e78582860161227c565b9150509250929050565b600080fd5b600080fd5b7f4e487b7100000000000000000000000000000000000000000000000000000000600052604160045260246000fd5b6124338261213a565b810181811067ffffffffffffffff82111715612452576124516123fb565b5b80604052505050565b6000612465612025565b9050612471828261242a565b919050565b600067ffffffffffffffff821115612491576124906123fb565b5b61249a8261213a565b9050602081019050919050565b82818337600083830152505050565b60006124c96124c484612476565b61245b565b9050828152602081018484840111156124e5576124e46123f6565b5b6124f08482856124a7565b509392505050565b600082601f83011261250d5761250c6123f1565b5b813561251d8482602086016124b6565b91505092915050565b6000806040838503121561253d5761253c61202f565b5b600061254b8582860161227c565b925050602083013567ffffffffffffffff81111561256c5761256b612034565b5b612578858286016124f8565b9150509250929050565b600081519050919050565b600082825260208201905092915050565b6000819050602082019050919050565b6125b7816121a6565b82525050565b60006125c983836125ae565b60208301905092915050565b6000602082019050919050565b60006125ed82612582565b6125f7818561258d565b93506126028361259e565b8060005b8381101561263357815161261a88826125bd565b9750612625836125d5565b925050600181019050612606565b5085935050505092915050565b6000602082019050818103600083015261265a81846125e2565b905092915050565b61266b816121a6565b82525050565b6000608082019050818103600083015261268b818761214b565b905061269a602083018661223b565b6126a76040830185612662565b81810360608301526126b9818461214b565b905095945050505050565b6000806000606084860312156126dd576126dc61202f565b5b60006126eb8682870161227c565b935050602084013567ffffffffffffffff81111561270c5761270b612034565b5b612718868287016124f8565b925050604084013567ffffffffffffffff81111561273957612738612034565b5b612745868287016124f8565b9150509250925092565b60006020820190506127646000830184612662565b92915050565b6000602082840312156127805761277f61202f565b5b600061278e8482850161227c565b91505092915050565b6127a0816120be565b81146127ab57600080fd5b50565b6000813590506127bd81612797565b92915050565b600080604083850312156127da576127d961202f565b5b60006127e88582860161227c565b92505060206127f9858286016127ae565b9150509250929050565b600067ffffffffffffffff82111561281e5761281d6123fb565b5b6128278261213a565b9050602081019050919050565b600061284761284284612803565b61245b565b905082815260208101848484011115612863576128626123f6565b5b61286e8482856124a7565b509392505050565b600082601f83011261288b5761288a6123f1565b5b813561289b848260208601612834565b91505092915050565b600080600080608085870312156128be576128bd61202f565b5b60006128cc8782880161227c565b94505060206128dd8782880161227c565b93505060406128ee878288016121c7565b925050606085013567ffffffffffffffff81111561290f5761290e612034565b5b61291b87828801612876565b91505092959194509250565b6000806000606084860312156129405761293f61202f565b5b600084013567ffffffffffffffff81111561295e5761295d612034565b5b61296a868287016124f8565b935050602061297b8682870161227c565b925050604061298c868287016121c7565b9150509250925092565b600080604083850312156129ad576129ac61202f565b5b60006129bb8582860161227c565b92505060206129cc8582860161227c565b9150509250929050565b7f4e487b7100000000000000000000000000000000000000000000000000000000600052602260045260246000fd5b60006002820490506001821680612a1d57607f821691505b602082108103612a3057612a2f6129d6565b5b50919050565b6000606082019050612a4b600083018661223b565b612a586020830185612662565b612a65604083018461223b565b949350505050565b600081905092915050565b6000612a83826120f4565b612a8d8185612a6d565b9350612a9d818560208601612110565b80840191505092915050565b6000612ab58284612a78565b915081905092915050565b7f496e76616c69642073747564656e742061646472657373000000000000000000600082015250565b6000612af66017836120ff565b9150612b0182612ac0565b602082019050919050565b60006020820190508181036000830152612b2581612ae9565b9050919050565b7f4e487b7100000000000000000000000000000000000000000000000000000000600052601160045260246000fd5b6000612b66826121a6565b91507fffffffffffffffffffffffffffffffffffffffffffffffffffffffffffffffff8203612b9857612b97612b2c565b5b600182019050919050565b60008190508160005260206000209050919050565b60006020601f8301049050919050565b600082821b905092915050565b600060088302612c057fffffffffffffffffffffffffffffffffffffffffffffffffffffffffffffffff82612bc8565b612c0f8683612bc8565b95508019841693508086168417925050509392505050565b6000819050919050565b6000612c4c612c47612c42846121a6565b612c27565b6121a6565b9050919050565b6000819050919050565b612c6683612c31565b612c7a612c7282612c53565b848454612bd5565b825550505050565b600090565b612c8f612c82565b612c9a818484612c5d565b505050565b5b81811015612cbe57612cb3600082612c87565b600181019050612ca0565b5050565b601f821115612d0357612cd481612ba3565b612cdd84612bb8565b81016020851015612cec578190505b612d00612cf885612bb8565b830182612c9f565b50505b505050565b600082821c905092915050565b6000612d2660001984600802612d08565b1980831691505092915050565b6000612d3f8383612d15565b9150826002028217905092915050565b612d58826120f4565b67ffffffffffffffff811115612d7157612d706123fb565b5b612d7b8254612a05565b612d86828285612cc2565b600060209050601f831160018114612db95760008415612da7578287015190505b612db18582612d33565b865550612e19565b601f198416612dc786612ba3565b60005b82811015612def57848901518255600182019150602085019450602081019050612dca565b86831015612e0c5784890151612e08601f891682612d15565b8355505b6001600288020188555050505b505050505050565b7f436572746966696361746520646f6573206e6f74206578697374000000000000600082015250565b6000612e57601a836120ff565b9150612e6282612e21565b602082019050919050565b60006020820190508181036000830152612e8681612e4a565b9050919050565b600081519050919050565b600082825260208201905092915050565b6000612eb482612e8d565b612ebe8185612e98565b9350612ece818560208601612110565b612ed78161213a565b840191505092915050565b6000608082019050612ef7600083018761223b565b612f04602083018661223b565b612f116040830185612662565b8181036060830152612f238184612ea9565b905095945050505050565b600081519050612f3d81612065565b92915050565b600060208284031215612f5957612f5861202f565b5b6000612f6784828501612f2e565b91505092915050565b6000604082019050612f85600083018561223b565b612f926020830184612662565b9392505050565b6000604082019050612fae600083018561223b565b612fbb6020830184612387565b939250505056fea2646970667358221220e6fd35d9d89c72adc9c5de76b27fa5ce6dc60d16b4a07e112c863aae1d72206b64736f6c634300081c0033",
  "linkReferences": {},
  "deployedLinkReferences": {}
}